:100000000C942A000C94D2010C9447000C944700E5
:100010000C9447000C9447000C9447000C94470044
:100020000C9447000C9447000C9447000C94470034
:100030000C9447000C9447000C9447000C94470024
:100040000C9447000C9447000C9447000C94470014
:100050000C94470011241FBECFE5D8E0DEBFCDBF12
:1000600010E0A0E6B0E0ECEDFBE002C005900D92E0
:10007000A236B107D9F720E0A2E6B0E001C01D9298
:10008000A436B207E1F70E942E020C94EC050C9402
:10009000000060E081E40E941C0261E081E40E94B3
:1000A0001C0262E081E40E941C0260E082E40E9483
:1000B0001C0261E082E40E941C0262E082E40E9471
:1000C0001C0262E084E40E940A020E944D037894BC
:1000D00085B7836085BF8BB780648BBF0895CF934E
:1000E00080916000811107C090916300992319F0FD
:1000F000913009F0F5C0811103C081E08093630065
:1001000060E082E40E94280261E082E40E9428020A
:1001100080916300813021F120F0823009F4B9C070
:10012000D8C060E081E40E94220261E081E40E9484
:10013000280262E081E40E942802C0E009C084E451
:1001400090E00E944F0380916000882319F0CF5FF8
:10015000C233A8F381E0809363001092610020C154
:1001600080916000811144C0809161008230C9F1AA
:1001700060E082E40E94280262E081E40E9428029A
:1001800060E081E40E94280262E082E40E9428028A
:10019000C0E025C061E081E40E94220261E082E4C7
:1001A0000E94220286E891E00E944F0361E081E410
:1001B0000E94280261E082E40E9428028EEB90E017
:1001C0000E944F0361E081E40E94220261E082E428
:1001D0000E94220286E891E00E944F03CF5FC53063
:1001E000C8F281E08093610082E08093630035C0B3
:1001F00062E081E40E94280260E082E40E9428021A
:1002000062E082E40E94280260E081E40E94280209
:10021000C0E021C061E081E40E9422028CE791E00D
:100220000E944F0361E081E40E94280284EB90E089
:100230000E944F0361E081E40E9422028CE791E07A
:100240000E944F0380916000811104C081E080937F
:10025000610003C0CF5FC530E8F261E081E40E9435
:10026000280261E082E40E942802809161008111ED
:1002700007C082E08093630081E08093610090C0BA
:10028000823009F08DC01092630081E0809361009C
:1002900087C060E081E40E94280261E081E40E945E
:1002A000280262E081E40E942202C0E009C084E4E6
:1002B00090E00E944F0380916000882319F0CF5F87
:1002C000C233A8F382E08093610081E080936300F1
:1002D00067C082E08093630081E08093610060C02A
:1002E00060E082E40E94220261E082E40E9428022F
:1002F00062E082E40E94280260E081E40E94280219
:1003000061E081E40E94280262E081E40E9422020E
:1003100088E893E10E944F0362E081E40E94280292
:1003200060E082E40E942802C0E025C061E081E430
:100330000E94220261E082E40E94220286E891E0AB
:100340000E944F0361E081E40E94280261E082E4A0
:100350000E9428028EEB90E00E944F0361E081E44E
:100360000E94220261E082E40E94220286E891E07B
:100370000E944F03CF5FC530C8F261E081E40E9464
:10038000280261E082E40E94280262E082E40E9486
:10039000220281E0809360001092630080936100EC
:1003A000CF9108951F920F920FB60F9211242F93A1
:1003B0003F934F935F936F937F938F939F93AF93ED
:1003C000BF93EF93FF9342E650E062E084E40E9423
:1003D000100280916200823330F081E080936000EF
:1003E0001092620006C0823320F4109260001092D6
:1003F0006200FF91EF91BF91AF919F918F917F919B
:100400006F915F914F913F912F910F900FBE0F9081
:100410001F90189540E00E943302811181E00895F9
:10042000FA01829905C080E0089580818F5F808302
:100430008299FBCF81E0089541E00E94330281114F
:1004400081E0089541E00E94C002811181E0089599
:1004500040E00E94C002811181E008950E9449009D
:100460000E946F00FDCF823449F118F4813441F0CD
:100470007DC0833409F440C0843409F45AC076C086
:1004800041110DC02AB381E090E002C0880F991F8E
:100490006A95E2F7809582238ABB81E00895413016
:1004A00009F066C02AB381E090E002C0880F991F6E
:1004B0006A95E2F7822B8ABB81E0089541110DC055
:1004C00027B381E090E002C0880F991F6A95E2F798
:1004D0008095822387BB81E00895413009F04AC0AE
:1004E00027B381E090E002C0880F991F6A95E2F778
:1004F000822B87BB81E0089541110DC024B381E0B8
:1005000090E002C0880F991F6A95E2F780958223D8
:1005100084BB81E00895413079F524B381E090E017
:1005200002C0880F991F6A95E2F7822B84BB81E095
:10053000089541110DC021B381E090E002C0880F01
:10054000991F6A95E2F78095822381BB81E0089527
:100550004130A1F421B381E090E002C0880F991FDF
:100560006A95E2F7822B81BB81E0089580E00895CF
:1005700080E0089580E0089580E0089580E0089587
:10058000823449F118F4813441F07DC0833409F498
:1005900040C0843409F45AC076C041110DC02BB359
:1005A00081E090E002C0880F991F6A95E2F780957C
:1005B00082238BBB81E00895413009F066C02BB3E4
:1005C00081E090E002C0880F991F6A95E2F7822BC4
:1005D0008BBB81E0089541110DC028B381E090E00C
:1005E00002C0880F991F6A95E2F78095822388BB25
:1005F00081E00895413009F04AC028B381E090E0DD
:1006000002C0880F991F6A95E2F7822B88BB81E0B0
:10061000089541110DC025B381E090E002C0880F1C
:10062000991F6A95E2F78095822385BB81E0089542
:10063000413079F525B381E090E002C0880F991F21
:100640006A95E2F7822B85BB81E0089541110DC0C8
:1006500022B381E090E002C0880F991F6A95E2F70B
:100660008095822382BB81E008954130A1F422B3BA
:1006700081E090E002C0880F991F6A95E2F7822B13
:1006800082BB81E0089580E0089580E0089580E0D5
:10069000089580E0089580E0089513BE08958F9234
:1006A0009F92AF92BF92CF92DF92EF92FF92CF9341
:1006B000DF93EC01BC0180E090E00E94F9046B0143
:1006C0007C012FE632E143E852E40E945304882380
:1006D0009CF4A70196016FE672E183E892E40E9420
:1006E000CF032FE632E143E85EE30E9458040E9404
:1006F000CA04C1E0D0E035C0C134D10579F12FE69C
:1007000032E143E852E4C701B6010E9458040E9456
:100710003C040E94CA044B015C01EB012FE632E16C
:1007200043E85EE3C701B6010E9458046B017C01F7
:10073000B40180E090E00E94F9049B01AC01C70184
:10074000B6010E9458049B01AC0160E070E080E8B3
:1007500093E40E94CF030E94CA0403C060E0C1E09A
:10076000D0E062BF83B7846083BF20E030E008C080
:1007700008B600FEFDCF88B7816088BF2F5F3F4F6E
:100780002C173D07A8F313BEDF91CF91FF90EF9098
:10079000DF90CF90BF90AF909F908F90089550586A
:1007A000BB27AA270E94E7030C949A050E948C0598
:1007B00038F00E94930520F039F49F3F19F426F495
:1007C0000C9489050EF4E095E7FB0C945A05E92F8B
:1007D0000E94AB0558F3BA176207730784079507A1
:1007E00020F079F4A6F50C94E5050EF4E0950B2EB7
:1007F000BA2FA02D0B01B90190010C01CA01A00173
:100800001124FF27591B99F0593F50F4503E68F1CD
:100810001A16F040A22F232F342F4427585FF3CF0E
:10082000469537952795A795F0405395C9F77EF4DF
:100830001F16BA0B620B730B840BBAF09150A1F028
:10084000FF0FBB1F661F771F881FC2F70EC0BA0FAE
:10085000621F731F841F48F4879577956795B79536
:10086000F7959E3F08F0B0CF9395880F08F0992731
:10087000EE0F9795879508950E94CD0590F09F37CC
:1008800048F4911116F40C94E60560E070E080E8FD
:100890009FE3089526F01B16611D711D811D0C94A8
:1008A00060050C947B050E94360508F481E00895EC
:1008B0000E946C040C949A050E94930558F00E94C3
:1008C0008C0540F029F45F3F29F00C945A05511132
:1008D0000C94E6050C9489050E94AB0568F39923F6
:1008E000B1F3552391F3951B550BBB27AA2762172C
:1008F0007307840738F09F5F5F4F220F331F441F39
:10090000AA1FA9F335D00E2E3AF0E0E832D091506C
:100910005040E695001CCAF72BD0FE2F29D0660F59
:10092000771F881FBB1F261737074807AB07B0E89C
:1009300009F0BB0B802DBF01FF2793585F4F3AF0A2
:100940009E3F510578F00C945A050C94E6055F3FE4
:10095000E4F3983ED4F3869577956795B795F79528
:100960009F5FC9F7880F911D9695879597F9089510
:10097000E1E0660F771F881FBB1F621773078407AC
:10098000BA0720F0621B730B840BBA0BEE1F88F7BB
:10099000E09508950E94B30588F09F5798F0B92F0D
:1009A0009927B751B0F0E1F0660F771F881F991FA4
:1009B0001AF0BA95C9F714C0B13091F00E94E5055C
:1009C000B1E008950C94E505672F782F8827B85F6C
:1009D00039F0B93FCCF3869577956795B395D9F7FC
:1009E0003EF490958095709561957F4F8F4F9F4F06
:1009F0000895E89409C097FB3EF490958095709512
:100A000061957F4F8F4F9F4F9923A9F0F92F96E95A
:100A1000BB279395F695879577956795B795F111CF
:100A2000F8CFFAF4BB0F11F460FF1BC06F5F7F4F6C
:100A30008F4F9F4F16C0882311F096E911C077237E
:100A400021F09EE8872F762F05C0662371F096E887
:100A5000862F70E060E02AF09A95660F771F881F56
:100A6000DAF7880F9695879597F90895990F0008FA
:100A7000550FAA0BE0E8FEEF16161706E807F90770
:100A8000C0F012161306E407F50798F0621B730B0B
:100A9000840B950B39F40A2661F0232B242B252B8C
:100AA00021F408950A2609F4A140A6958FEF811D2F
:100AB000811D089597F99F6780E870E060E00895D0
:100AC000882371F4772321F09850872B762F07C065
:100AD000662311F499270DC09051862B70E060E0D9
:100AE0002AF09A95660F771F881FDAF7880F969578
:100AF000879597F908959F3F31F0915020F487959D
:100B000077956795B795880F911D9695879597F975
:100B100008959FEF80EC089500240A941616170696
:100B200018060906089500240A94121613061406DE
:100B300005060895092E0394000C11F4882352F041
:100B4000BB0F40F4BF2B11F460FF04C06F5F7F4FF9
:100B50008F4F9F4F089557FD9058440F551F59F0E0
:100B60005F3F71F04795880F97FB991F61F09F3F9A
:100B700079F087950895121613061406551FF2CFC3
:100B80004695F1DF08C0161617061806991FF1CF13
:100B9000869571056105089408950E94B305A0F03B
:100BA000BEE7B91788F4BB279F3860F41616B11D4D
:100BB000672F782F8827985FF7CF86957795679569
:100BC000B11D93959639C8F30895E894BB2766271D
:0C0BD0007727CB0197F90895F894FFCF28
:020BDC00010115
:00000001FF
